:100000000C94FC000C9424010C9424010C94240105
:100010000C9424010C9424010C9424010C942401CC
:100020000C9424010C9424010C9475100C94F3107E
:100030000C9424010C9424010C9424010C942401AC
:100040000C9424010C9424010C9424010C9424019C
:100050000C9424010C9424010C9424010C942B1076
:100060000C9424010C944B130C9425130C94240130
:100070000C9424010C9424010C9424010C9424016C
:100080000C9424010C9424010C9424010C9424015C
:100090000C9424010C9424010C9424010C9424014C
:1000A0000C9424010C9424010C9424010F0E0C09CF
:1000B0001F1814100D0B0A021E1915110807040150
:1000C0001D1A1612060503001C1B17130F0E0C0930
:1000D0001F1814100D0B0A021E1915110807040130
:1000E0001D1A1612060503001C1B1713080B00022D
:1000F00002020000090400000102020000052400C1
:100100001001052401010104240206052406000152
:100110000705810310004009040100020A000000E5
:1001200007050202400000070583024000000403A7
:10013000090412010002EF020140501D4F6100014D
:100140000102030141726475696E6F005348494BA7
:10015000204E333242001E0001070605040100084C
:100160000A0B0C0D0900000000240027002A002DB6
:1001700000300000000000250028002B002E003178
:1001800000000000002300260029002C002F00049E
:10019000040404040304050202020204030202022E
:1001A0000206060606060604040202020404040807
:1001B000020110408040102040804080080204016D
:1001C00080402010020110801020404020000000DC
:1001D0000200090F0000030401000C0000000000F1
:1001E0000000000000000000000000007E306D797B
:1001F000335B5F707F7B7D1311241FBECFEFDAE08E
:10020000DEBFCDBF11E0A0E0B1E0E6EEFCE402C04D
:1002100005900D92AE37B107D9F728E0AEE7B1E00F
:1002200001C01D92A232B207E1F710E0CCEFD0E09E
:1002300004C02197FE010E947924CB3FD107C9F762
:100240000E94DC160C9471260C940000CF93DF936F
:100250001F92CDB7DEB76983DC01ED91FC9102807E
:10026000F381E02D41E050E0BE016F5F7F4F0995C3
:100270000F90DF91CF91089581508F3008F047C0E3
:10028000E82FF0E0EA5BFE4F0C94792463016701EC
:1002900055015B015F018701870187016A017001D8
:1002A000740178017E0187018201809180008F773F
:1002B000809380000895809180008F7DF9CF809198
:1002C0008000877FF5CF84B58F7784BD089584B58E
:1002D0008F7DFBCF809190008F7780939000089561
:1002E000809190008F7DF9CF80919000877FF5CF2E
:1002F0008091C0008F778093C00008958091C000E6
:100300008F7DF9CF8091C200877F8093C2000895CE
:10031000CF93DF93282F30E0F901E353FE4F849110
:10032000F901E255FE4FD491F901E157FE4FC49116
:10033000CC23A1F081110E943C01EC2FF0E0EE0FE4
:10034000FF1FEF57FE4FA591B491EC91ED2381E093
:1003500090E009F480E0DF91CF91089580E090E093
:10036000FACF1F93CF93DF93282F30E0F901E353A7
:10037000FE4F8491F901E255FE4FD491F901E15706
:10038000FE4FC491CC23A9F0162F81110E943C018D
:10039000EC2FF0E0EE0FFF1FED58FE4FA591B4914A
:1003A0008FB7F894EC91111108C0D095DE23DC933F
:1003B0008FBFDF91CF911F910895DE2BF8CFCF93A0
:1003C000DF9390E0FC01E255FE4F249181579E4F50
:1003D000FC0184918823C9F090E0880F991FFC01EB
:1003E000EB59FE4FA591B491FC01ED58FE4FC5911C
:1003F000D49161110DC09FB7F8948C912095822300
:100400008C938881282328839FBFDF91CF91089503
:10041000623051F49FB7F8943C91822F80958323EA
:100420008C93E8812E2BEFCF8FB7F894EC912E2B85
:100430002C938FBFEACF3FB7F89480912903909116
:100440002A03A0912B03B0912C0326B5A89B05C0CD
:100450002F3F19F00196A11DB11D3FBFBA2FA92F43
:10046000982F8827BC01CD01620F711D811D911D40
:1004700042E0660F771F881F991F4A95D1F70895AC
:100480008F929F92AF92BF92CF92DF92EF92FF92A4
:100490004B015C010E941B026B017C010E941B024C
:1004A0006C197D098E099F09683E7340810591058D
:1004B000A8F321E0821A9108A108B10888EEC80EBD
:1004C00083E0D81EE11CF11C81149104A104B10445
:1004D00029F7FF90EF90DF90CF90BF90AF909F9063
:1004E0008F9008952FB7F89460912503709126039B
:1004F00080912703909128032FBF08958093E900EE
:100500008091F200882319F08AE38093E80008952F
:1005100083E00C947E0240918C0150918D012091DA
:100520008A0130918B0142175307B4F49091E8008F
:100530009570E1F39091E80092FD19C08093F1006D
:1005400080918C0190918D0101968F739927892B51
:1005500019F48EEF8093E80080918C0190918D01C9
:10056000019690938D0180938C0181E0089580E045
:100570000895EF92FF920F931F93CF93DF93F82E7E
:10058000192FE62E042F81E0860F880F0E948B0220
:1005900083E00E948B02CF2DD12FEC0EFD2EF11C9B
:1005A000CE15DF05B9F007FF13C0FE0184910E944C
:1005B0008B02182F80E00E948B02812321968111EB
:1005C000EFCFDF91CF911F910F91FF90EF900895A2
:1005D0008881EDCF81E0F5CFDF92EF92FF920F930C
:1005E0001F93CF93DF93D82E8A01EB017B01E40E9A
:1005F000F51ECE15DF0559F0D7FE12C0FE0184911D
:100600000E948B0221968111F4CF0FEF1FEFC801DA
:10061000DF91CF911F910F91FF90EF90DF900895A0
:100620008881EECF2FB7F89487708093E90090917E
:10063000E800892F807295FF04C09091F20080E459
:10064000891B2FBF089583E00E94120390E0089554
:100650007F928F929F92AF92BF92CF92DF92EF9252
:10066000FF920F931F93CF93DF93C82E8B017A01D4
:1006700080919301811110C08FEF9FEFDF91CF9197
:100680001F910F91FF90EF90DF90CF90BF90AF90B0
:100690009F908F907F9008958091910180FF05C079
:1006A0008091E00082608093E000CE2DDF2DD12C80
:1006B0008AEFB82E8C2D8770982E8C2D8072882E04
:1006C0008C2D8074782E9AE3A92E209719F4DD20C2
:1006D00009F452C08C2D0E94120381110AC0BA94F1
:1006E000BB2051F261E070E080E090E00E944002A7
:1006F000ECCF8C171D0611F00CF08C2F9FB7F894DF
:100700009092E9002091E80025FD02C09FBFDDCF57
:10071000282F30E0C21BD30B882029F08150A0F095
:100720001092F100FBCFF801C7FC0AC0815050F0D5
:1007300041914093F100FACF44914093F1003196FA
:100740008150D0F7020F131FDD2021F0A092E800A6
:10075000D12CDCCF8091E80085FD07C0A092E80095
:10076000DD24D394209791F2F3CF209779F6772068
:1007700069F2A092E800CACF5D9884E68093900168
:10078000C7017CCFCF93DF93EC0180910B018823CD
:1007900031F083E00E9428031816190634F081E036
:1007A00090E09B838A8380E090E0DF91CF91089571
:1007B00090919301992319F13FB7F8948770809332
:1007C000E9008091F20090E0481759070CF4CA0143
:1007D000282FFB0154E6215038F0289850938F01C0
:1007E0004091F1004193F7CF009739F02091F2004A
:1007F000211103C02BE62093E8003FBF08958FEF3F
:100800009FEF08950F931F93CF93DF931F92CDB760
:10081000DEB78C01FC018485958597FF0FC041E010
:1008200050E0BE016F5F7F4F82E00E94D8030197C6
:1008300071F4898190E0F80195878487F8018485B7
:1008400095850F90DF91CF911F910F9108958FEFB4
:100850009FEFF1CFCF93DF931F92CDB7DEB7FC01AF
:100860008485958597FD08C02FEF3FEF3587248756
:100870000F90DF91CF91089541E050E0BE016F5F8E
:100880007F4F82E00E94D803019719F4898190E09C
:10089000EFCF8FEF9FEFECCF9FB7F89487708093E7
:1008A000E9008091F2009FBF0895FC018485958541
:1008B00097FD06C082E00E944C0490E001960895E6
:1008C00082E00E944C0490E00895615030F0209145
:1008D000F100FC0120830196F8CF289884E68093EC
:1008E0008F010895AF92BF92CF92DF92EF92FF9265
:1008F0000F931F93CF93DF936C017B018B01040F48
:10090000151FEB015E01AE18BF08C017D10759F0E3
:100910006991D601ED91FC910190F081E02DC60125
:100920000995892B79F7C501DF91CF911F910F911F
:10093000FF90EF90DF90CF90BF90AF90089580919F
:10094000820181110DC082E080937E0184E080935A
:100950007F01109281011092800181E080938201D9
:100960008EE791E008950F931F93CF93DF931F922B
:10097000CDB7DEB782E0898342E450E06CEE70E0F0
:1009800080E80E94EC020E949F04DC0112960D9107
:100990001C910115110589F0D801ED91FC9102809F
:1009A000F381E02DBE016F5F7F4FC801099597FD70
:1009B00004C0F80100851185ECCF89810F90DF918B
:1009C000CF911F910F910895FC01538D448D252FD8
:1009D00030E0842F90E0821B930B541710F0CF96D9
:1009E000089501970895FC01918D828D981761F00B
:1009F000A28DAE0FBF2FB11D5D968C91928D9F5F22
:100A00009F73928F90E008958FEF9FEF0895FC0100
:100A1000918D828D981731F0828DE80FF11D858DB3
:100A200090E008958FEF9FEF0895FC01918D228D46
:100A3000892F90E0805C9F4F821B91098F739927CB
:100A4000089589E996E00E94150521E0892B09F4B3
:100A500020E0822F089580E090E0892B29F00E9409
:100A6000210581110C9400000895FC01A48DA80FAC
:100A7000B92FB11DA35ABF4F2C91848D90E00196E0
:100A80008F739927848FA689B7892C93A089B18900
:100A90008C9182748C93938D848D981306C00288F8
:100AA000F389E02D80818F7D80830895EF92FF92FE
:100AB0000F931F93CF93DF93EC0181E0888F9B8D81
:100AC0008C8D981319C0E889F989808185FF14C03D
:100AD0009FB7F894EE89FF896083E889F98980815E
:100AE000827480839FBF81E090E0DF91CF911F915E
:100AF0000F91FF90EF900895F62E0B8D10E00F5F91
:100B00001F4F0F731127E02E8C8D8E110CC00FB666
:100B100007FCFACFE889F989808185FFF5CFCE01FE
:100B20000E943505F1CFEB8DEC0FFD2FF11DE35A3F
:100B3000FF4FF0829FB7F8940B8FEA89FB89808181
:100B40008062CFCFCF93DF93EC01888D8823B9F0FB
:100B5000AA89BB89E889F9898C9185FD03C08081C8
:100B600086FD0DC00FB607FCF7CF8C9185FFF2CF45
:100B7000808185FFEDCFCE010E943505E9CFDF9161
:100B8000CF91089590E080E0089580E008950F935C
:100B90001F93CF93DF93CDB7DEB7C456D1090FB6FD
:100BA000F894DEBF0FBECDBFFC01DB019C919E5FC0
:100BB0009C939E01295F3F4F8AE5D9011D928A953A
:100BC000E9F788E089838BE08A8322E02C8391E037
:100BD0009D839E8339E0398764E06A879E879F877B
:100BE0003A8B44E24B8B9C8BA0E0B1E0BE8BAD8B8B
:100BF00009E010E0188F0F8B998F3B8F6C8F2F8F30
:100C000098A353E059A387E08CA34DA39EA3B8A754
:100C1000AFA3A1E4B0E0BAA7A9A786E08BA74CA731
:100C20002DA79EA79FA789AB4AAB2BAB2CAB2DABB7
:100C30003FAB48AF59AF9AAF5BAF9CAF2DAF9EAF04
:100C400021963FAF219722964FAF229723965FAF11
:100C5000239724962FAF249725966FAF2597269636
:100C60009FAF269727969FAF279728969FAF2897E5
:100C70002A963FAF2A9745E02B964FAF2B972D969C
:100C80002FAF2D9760E470E02F967FAF6EAF2F9758
:100C900063964FAF639785E264968FAF64976596CE
:100CA0009FAF659766969FAF669767969FAF67976A
:100CB00068963FAF689769964FAF69976B962FAF6D
:100CC0006B976D967FAF6EAF6D97A1964FAFA19763
:100CD000A2968FAFA297A3969FAFA397A4969FAF1C
:100CE000A497A5965FAFA59792819B839B879F5FF3
:100CF0009A8F9D8F83812C968FAF2C978F5F806802
:100D00006A968FAF6A9744E650E0BE016F5F7F4FEF
:100D100080E00E94EC02CC59DF4F0FB6F894DEBFA2
:100D20000FBECDBFDF91CF911F910F910895CF924C
:100D3000DF92EF92FF920F931F93CF93DF93EC011B
:100D400088810E9488018C010E9472022889398959
:100D50002017310731F06A8B7B8B8C8B9D8B198B25
:100D6000088BCA88DB88EC88FD886C197D098E09A0
:100D70009F09CA80DB80EC80FD806C157D058E05A7
:100D80009F0530F08E859F859D878C871F870E87F6
:100D90002C853D858E859F852817390781F04A85EA
:100DA0005B8542305105A1F48E819F81A885B9856C
:100DB0000196A11DB11D8E839F83A887B987DF91FE
:100DC000CF911F910F91FF90EF90DF90CF900895FA
:100DD0004115510531F42130310589F7892B21F373
:100DE000EECF4130510559F7232B49F7019739F7D9
:100DF000DBCF87FF0AC09CE0980F923030F08D3F28
:100E000021F0803F18F4807F089580E00895982FA6
:100E10009F7E282F2F7C203839F0803E29F081E0FA
:100E2000903C19F080E0089581E00895CF93DF931E
:100E3000EC01E881F981309711F0CB9609958CADE2
:100E4000823F09F49EC090F5803C09F486C090F47E
:100E5000803909F454C030F4803809F445C0DF917A
:100E6000CF910895803A09F475C0803BC1F7EA85B7
:100E7000FB853CC0803E09F459C058F4803D79F7A9
:100E8000EE85FF85309759F36DAD8BADDF91CF9136
:100E90000994803F09F464C0813F09F7EC89FD891A
:100EA0003097E9F28DADDF91CF9109948A3F91F1AE
:100EB00080F4863F09F477C028F4833F81F6E88DFB
:100EC000F98DEECF883FF1F0893F49F6E8A1F9A10D
:100ED0001BC08C3F29F108F18E3F29F18F3F09F0AB
:100EE000BECFE8A5F9A510C0EC81FD81309709F4CB
:100EF000B6CF4EAD6DAD8BADDF91CF910994EE8144
:100F0000FF81F4CFEC8DFD8D309709F4A8CFDF91F0
:100F1000CF910994EE8DFF8DF7CFEAA1FBA1F4CF1D
:100F2000ECA1FDA1F1CFEEA1FFA1EECFE889F989F7
:100F3000309709F494CF6EAD20E8629FB001112480
:100F400060787F738DAD8F77682B70528BADDF919A
:100F5000CF910994E885F985C9CFEC85FD8592CFBD
:100F6000EA89FB89309709F47ACF6DAD7EAD61389F
:100F7000710510F060E870E0CE01CF96DF91CF915F
:100F80000994EE89FF89309709F469CF8EAD20E886
:100F9000829FC001112480789F732DAD2F77822B03
:100FA000DF91CF910994EA8DFB8DAECF0F931F9304
:100FB000CF93DF9300D000D0CDB7DEB7FC012089FE
:100FC00091898289378539832A839B838C830EE7B5
:100FD00013E0F801838144E050E0BE016F5F7F4F72
:100FE0008F5F0E942803F80183818F5F0E947E0239
:100FF0000F900F900F900F90DF91CF911F910F9155
:1010000008950F931F93CF93DF9300D000D0CDB7F7
:10101000DEB78C01262FFC01848195813681303F1B
:10102000D9F0009711F4208B04C08130910581F430
:10103000618BF801848195810196958384830F905B
:101040000F900F900F90DF91CF911F910F91089506
:10105000029779F7628BEDCF603F49F48389F0E125
:101060008F9FC00111248460F8018787DCCF63E083
:1010700070E00E946524AC01273F39F49389929572
:10108000907F85E0840F982B9787F80141155105D3
:1010900021F4208B128A118ACCCF4130510519F4EA
:1010A000218B128AC6CF228B273F19F29089818922
:1010B000378539839A838B832C838091810344E025
:1010C00050E0BE016F5F7F4F8F5F0E9428038091C9
:1010D00081038F5F0E947E02ACCFDC0116966C9379
:1010E000169753968C91539720E1829FC00111244B
:1010F000603FE8F4E62FE295EF70E750FF0BEE0F4C
:10110000FF1FE75EFE4F9181892B1F968C931F97DF
:1011100052961C92529751961C92519750961C923F
:10112000509715961C921E92149781E00895846042
:10113000ECCFBF92CF92DF92EF92FF920F931F936B
:10114000CF93DF938C016B01B42EE52EF22E60EF6E
:10115000FC01808191810E946D08882351F181E01A
:10116000F82631F060EFF801808191810E9401083A
:10117000CB2DDE2DCC0EDD1EF80180819181CC15AA
:10118000DD0521F069910E940108F6CFFF2019F0DA
:1011900067EF0E940108F80180819181DF91CF9172
:1011A0001F910F91FF90EF90DF90CF90BF900C9424
:1011B000D607DF91CF911F910F91FF90EF90DF90B5
:1011C000CF90BF9008950F931F93CF936D3FD8F4A6
:1011D0006A3F10F4683FC9F4C62F8C01FC0180817E
:1011E00091810E946D08882381F06C2FF801808125
:1011F00091810E940108F80180819181CF911F9116
:101200000F910C94D6076E3F38F7CF911F910F9135
:1012100008950F931F93CF93DF93813EB8F5DFEFCF
:10122000D20FD031F0F587FF3CC0142F062FC82F06
:10123000682F80916207909163070E946D08882350
:1012400081F16D2F6C2B80916207909163070E9452
:101250000108602F6F7780916207909163070E9469
:101260000108CF7EC03C41F0612F6F77809162070B
:10127000909163070E940108809162079091630733
:10128000DF91CF911F910F910C94D607883F48F0C2
:10129000682F82E697E0DF91CF911F910F910C9418
:1012A000E308DF91CF911F910F910895DC018D919B
:1012B0009C91DC01ED91FC910190F081E02D09946D
:1012C0006D3F48F46A3F10F4683F39F4FC018081B7
:1012D00091810C9456096E3FC8F708951F93CF93E0
:1012E000DF93813E30F52150203168F587FF2BC018
:1012F000D42F162FC82F622F682B8091F305909161
:10130000F4050E945609612F6F778091F305909143
:10131000F4050E945609CF7EC03CA9F06D2F6F776F
:101320008091F3059091F405DF91CF911F910C947A
:101330005609883F40F0682F83EF95E0DF91CF9109
:101340001F910C946009DF91CF911F9108950F9325
:101350001F93CF93DF93082F162FD42FC8E06D2F44
:10136000661F6627661F802F0E94B101DD0F61E0B6
:10137000812F0E94B10160E0812F0E94B101C15014
:1013800071F7DF91CF911F910F9108950F931F93E4
:10139000CF93DF9300D0CDB7DEB78C0169834A834A
:1013A00060E0FC0182810E94B1014981F801648101
:1013B00080810E94A7094A81F801648180810E948E
:1013C000A70961E0F80182810F900F90DF91CF9122
:1013D0001F910F910C94B1010F931F93CF93DF9343
:1013E0008C01C1E0D0E0F801868197818C179D07C0
:1013F0003CF040E06C2FC8010E94C6092196F3CF53
:10140000DF91CF911F910F910895CF93C82F87EB54
:1014100095E00E94EC0940E86C2F87EB95E00E9474
:10142000C6090E9472026093BF057093C005809345
:10143000C1059093C205CF91089520918A0522504D
:10144000223070F4209105062E3F51F0FC012081DE
:101450004381628181810E94090982E00C94050A1E
:1014600008950F931F93CF93DF93EC0190918A051A
:101470009D7F913009F058C0FE01EC57FF4F8081ED
:10148000882349F1688161506F708981682B809150
:10149000F3059091F4050E9456098981803F11F16E
:1014A0008E010B571F4FF80180819181029738F010
:1014B0006A818091F3059091F4050E945609F80124
:1014C00080819181039738F06B818091F305909131
:1014D000F4050E94560982E0DF91CF911F910F9190
:1014E0000C94050A60EF8091F3059091F4050E9439
:1014F00056098E01A8014C1B5D0B8091F30590915C
:10150000F4050F5F1F4F2A813B812138310510F010
:1015100020E830E04217530728F4F80163810E9465
:101520005609E8CF67EFD5CFDF91CF911F910F918B
:101530000895FC01808191810C941B25AF92BF928C
:10154000CF92DF92EF92FF920F931F93CF93DF938F
:10155000CDB7DEB7A2970FB6F894DEBF0FBECDBFF2
:10156000182F87EB95E00E94EC09612F70E06F5F08
:101570007F4F072E000C880B990B2AE0AE014F5FBE
:101580005F4F6A010E946923F60101900020E9F78C
:1015900031978F010C191D09B8016F5F7F4F90E0E3
:1015A00080E00E94A4257C01009761F1FC0110827B
:1015B000B6010E946A26B12CA12CA016B10629F111
:1015C000F701EA0DFB1DE114F10421F410922D0343
:1015D000EDE2F3E0808189831A824AE050E070E016
:1015E00060E0C6010E944922FB01E451FE4F449194
:1015F000602F6A1987EB95E00E94C609FFEFAF1ACA
:10160000BF0ADBCF10E000E0D6CFE114F10419F0FF
:10161000C7010E941B2547E662E087EB95E00E9428
:10162000C6090E9472026093BF057093C005809343
:10163000C1059093C205A2960FB6F894DEBF0FBE07
:10164000CDBFDF91CF911F910F91FF90EF90DF9071
:10165000CF90BF90AF900895CF92DF92EF92FF921C
:101660000F931F93CF93DF93EC018C819D818C01AD
:101670000F5F1F4F8017910708F043C07B012A813D
:101680003B812017310710F5099628173907F0F428
:10169000C880D9809B838A830E947F249983888312
:1016A000F601CF018C199D092C813D81821793078A
:1016B00050F4A881B981A80FB91F109711F080814B
:1016C0008C933196EECFC6010E941B258C819D81A3
:1016D0008017910758F4E881F981E80FF91F3097D6
:1016E00019F0D7012C9120830196F2CF1D830C8332
:1016F000DF91CF911F910F91FF90EF90DF90CF90EE
:1017000008951D821C82F4CF0F931F93CF93DF9314
:101710000AE813E0D0E0C0E02196CE010E94AD239C
:10172000F80181938F01C130F2E0DF07A9F7109231
:101730001C0380E0DF91CF911F910F910C949E0AC2
:10174000611102C00C94840B08950F931F93CF93E3
:10175000C82F882321F1109223030E947202009166
:101760001E0310911F032091200330912103601B61
:10177000710B820B930B6F3F710581059105B8F4D6
:1017800080911D03882399F0CC2361F00E94840B83
:1017900080911C03CF911F910F910C949E0A10927F
:1017A0002203DBCF80911C03823080F3F1CFCF91F5
:1017B0001F910F910895FF920F931F93CF93DF9383
:1017C000EC01F62E08811981C8010E94AD23F8169C
:1017D00021F06F2DC8010E94B523CE01DF91CF917A
:1017E0001F910F91FF9008952F923F924F925F9219
:1017F0006F927F928F929F92AF92BF92CF92DF9221
:10180000EF92FF920F931F93CF93DF93CDB7DEB785
:1018100062970FB6F894DEBF0FBECDBFFC016430F7
:10182000710568F09181903251F48281833009F41E
:10183000EDC0F0F4813039F1823009F494C0629641
:101840000FB6F894DEBF0FBECDBFDF91CF911F91D1
:101850000F91FF90EF90DF90CF90BF90AF909F904F
:101860008F907F906F905F904F903F902F90089552
:10187000853009F4F1C008F4CFC0883001F78381C6
:1018800080938A05DCCF83858730E9F480E0A381EB
:101890006A2F70E094858917B0F4282F30E0AF01EB
:1018A000420F531FDA011D969C91DB0114E0AA0F31
:1018B000BB1F1A95E1F7A657BC4FA20FB31F139693
:1018C0009C938F5FE4CF8581A38140E1A49FD001E9
:1018D0001124A657BC4F11968C93A38180E1A89F39
:1018E000D0011124A657BC4F81E09481911101C011
:1018F00080E012968C93A38190E1A99FD0011124DE
:10190000A657BC4F868140E1849F900111248781B6
:10191000822B1D968C93A38180E1A89FD001112476
:10192000A657BC4F808590E1899F90011124818545
:10193000822B1E968C93A38140E1A49FD001112499
:10194000A657BC4F81E09285911101C080E01F969F
:101950008C938485E38190E1E99FF0011124E6579F
:10196000FC4F80836CCF8381811169CFAAE8EA2E76
:10197000A3E0FA2E10E000E0D7016D917D010F5F2A
:101980001F4F1A830983CE0101960E94DB0B0130A1
:10199000B2E01B0789F787EB95E00E94EC094BE565
:1019A00062E087EB95E00E94C6094CE161E087EBBD
:1019B00095E00E94C6096CE271E080E090E00E9430
:1019C00040024CE961E087EB95E00E94C6096CE2B9
:1019D00071E080E090E00E9440024CE161E087EB22
:1019E00095E00E94C6096CE271E080E090E00E9400
:1019F00040024CE961E087EB95E00E94C6096CE289
:101A000071E080E090E00E94400219CF8381811153
:101A100016CF0E94840B13CF1B821C821D829983D8
:101A200084E08A838DEF93E00E94AD238D838EEF57
:101A300093E00E94AD238C838FEF93E00E94AD234F
:101A40008B8320E0AE014F5F5F4F65E070E082E680
:101A500097E00E949908F3CE6CECC62E60E0D62E7B
:101A600075E0472EE3E16E2E712CFBE08F2E912C5A
:101A7000FE0131965F01CE010C967C01F6012591A5
:101A800034918901112784E0000F111F8A95E1F735
:101A9000F801E657FC4F95858685A0E2A9834A8226
:101AA0002B8322812C8321812D83292F30E044E058
:101AB000359527954A95E1F72E839F709F83282FB0
:101AC00030E054E0359527955A95E1F728878F70D7
:101AD000898787858A8780818B877F866E86998AAA
:101AE000888A83E190E00E947F249D878C87F5019E
:101AF000CF018A199B09288939898217930750F4E5
:101B0000AC85BD85A80FB91F109711F080818C930B
:101B10003196EECF512CF801E657FC4F1F010D5FB7
:101B20001F4FD1018C91581650F4B801650D711DED
:101B300066577C4FC7010E942C0B5394F2CF4C8503
:101B40005D856889798920E082E697E00E9499089E
:101B5000C7010E94990ABFEFCB1ADB0AECEECE1642
:101B6000E0E0DE0609F08ACF80E28C8788E08D878E
:101B700080918A058E878BE090E09C838B8383E045
:101B800090E09E838D838BE090E00E947F249A8377
:101B90008983F701CF018E199F096D817E8149816B
:101BA0005A818617970750F4480F591F4115510560
:101BB00019F08081DA018C933196ECCF20E082E637
:101BC00097E00E949908C5010E94990A38CEEF92C9
:101BD000FF920F931F93CF93DF93CDB7DEB7C35020
:101BE000D2400FB6F894DEBF0FBECDBF1A82198265
:101BF00060E08E010F5F1F4FC8010E94DB0B80E089
:101C000092E0F8019C01119221503040E1F781E00F
:101C10008B839FEF9F87888B8B8B9F8F88A38BA352
:101C20009FA788AB8BAB9FAF21968FAF2197249650
:101C30008FAF249760969FAF609761968FAF619743
:101C400064968FAF6497A0969FAFA097A1968FAF31
:101C5000A197A4968FAFA497E0969FAFE097E196E7
:101C60008FAFE197E4968FAFE497C158DF4F988329
:101C7000CF57D040C058DF4F8883C058D040CD5791
:101C8000DF4F8883C358D040C157DF4F9883CF5868
:101C9000D040C057DF4F8883C059D040CD56DF4F6A
:101CA0008883C359D040C156DF4F9883CF59D04065
:101CB000C056DF4F8883C05AD040CD55DF4F888350
:101CC000C35AD040C155DF4F9883CF5AD040C0553A
:101CD000DF4F8883C05BD040CD54DF4F8883C35B28
:101CE000D040C154DF4F9883CF5BD040C054DF4F0A
:101CF0008883C05CD040CD53DF4F8883C35CD04025
:101D0000C153DF4F9883CF5CD040C053DF4F8883EF
:101D1000C05DD040CD52DF4F8883C35DD040C152FB
:101D2000DF4F9883CF5DD040C052DF4F8883C05EC5
:101D3000D040CD51DF4F8883C35ED040C151DF4FCB
:101D40009883CF5ED040C051DF4F8883C05FD040C2
:101D5000CD50DF4F8883C35FD040C150DF4F9883A1
:101D6000CF5FD040C050DF4F8883C050D140CD5F9F
:101D7000DE4F8883C350D140C15FDE4F9883CF5080
:101D8000D140C05FDE4F8883C051D140CD5EDE4F71
:101D90008883C351D140C15EDE4F9883CF51D1407B
:101DA000C05EDE4F8883C052D140CD5DDE4F888358
:101DB000C352D140C15DDE4F9883CF52D140C05D48
:101DC000DE4F8883C053D140CD5CDE4F8883C35340
:101DD000D140C15CDE4F9883CF53D140C05CDE4F11
:101DE0008883C054D140CD5BDE4F8883C354D1403B
:101DF000C15BDE4F9883CF54D140C05BDE4F8883F8
:101E0000C055D140CD5ADE4F8883C355D140C15A09
:101E1000DE4F9883CF55D140C05ADE4F8883C056DD
:101E2000D140CD59DE4F8883C356D140C159DE4FD2
:101E30009883CF56D140C059DE4F8883C057D140D8
:101E4000CD58DE4F8883C357D140C158DE4F9883A9
:101E5000CF57D140C058DE4F8883C058D140CD57AE
:101E6000DE4F8883C358D140C157DE4F9883CF5887
:101E7000D140C057DE4F8883C059D140CD56DE4F88
:101E80008883C359D140C156DE4F9883CF59D14082
:101E9000C056DE4F8883C05AD140CD55DE4F88836F
:101EA000C35AD140C155DE4F9883CF5AD140C05557
:101EB000DE4F8883C05BD140CD54DE4F8883C35B47
:101EC000D140C154DE4F9883CF5BD140C054DE4F28
:101ED0008883C05CD140CD53DE4F8883C35CD14042
:101EE000C153DE4F9883CF5CD140C053DE4F88830F
:101EF000C05DD140CD52DE4F8883C35DD140C15219
:101F0000DE4F9883CF5DD140C052DE4F8883C05EE4
:101F1000D140CD51DE4F8883C35ED140C151DE4FE9
:101F20009883CF5ED140C051DE4F8883C05FD140DF
:101F3000CD50DE4F8883C35FD140C150DE4F9883C0
:101F4000CF5FD140C050DE4F8883C050D2402CEAD2
:101F500030E04CEC50E0F90185919491FC01FF27B1
:101F600084E0EE0FFF1F8A95E1F73396E00FF11F33
:101F7000CF01409611928E179F07E1F72F5F3F4FD9
:101F80004217530741F7CF5FDD4F1882C150D2404F
:101F9000F12CE12CF80161918F01FFEFEF1AFF0A9C
:101FA000CE5FDD4FF982E882C250D240CE018E5F13
:101FB0009D4F0E94DB0B21E0E21622E0F20651F772
:101FC000E8E5F1E0659174918DEF93E0CE5FDD4F30
:101FD00099838883C250D240CE018E5F9D4F0E946C
:101FE000DB0BE7E5F1E0659174918EEF93E0CE5F56
:101FF000DD4F99838883C250D240CE018E5F9D4FC2
:102000000E94DB0BE6E5F1E0659174918FEF93E0C0
:10201000CE5FDD4F99838883C250D240CE018E5F60
:102020009D4F0E94DB0BCD5FDD4F0FB6F894DEBFF6
:102030000FBECDBFDF91CF911F910F91FF90EF9019
:10204000089584E0E9E7F1E0DB0101900D928A95C3
:10205000E1F784E008951F920F920FB60F921124BA
:102060002F933F938F939F93AF93BF9380912503BB
:1020700090912603A0912703B09128033091240367
:1020800023E0230F2D3758F50196A11DB11D209394
:1020900024038093250390932603A0932703B093F2
:1020A00028038091290390912A03A0912B03B091DA
:1020B0002C030196A11DB11D8093290390932A033F
:1020C000A0932B03B0932C03BF91AF919F918F915D
:1020D0003F912F910F900FBE0F901F90189526E8FB
:1020E000230F0296A11DB11DD2CF1F920F920FB6E2
:1020F0000F9211242F933F934F935F936F937F938E
:102100008F939F93AF93BF93CF93EF93FF93C09120
:10211000E1008091E100837F8093E100C3FF0FC065
:102120001092E90081E08093EB001092EC0082E3D2
:102130008093ED001092930188E08093F000C2FF3D
:102140001BC083E00E947E0280919001882341F0B1
:1021500080919001815080939001811101C05D9A1E
:1021600080918F01882341F080918F01815080936D
:102170008F01811101C0289AC4FF23C08091E20021
:102180008E7E81608093E2008091E1008F7E80935B
:10219000E100809191018E7E806180939101FF9199
:1021A000EF91CF91BF91AF919F918F917F916F915F
:1021B0005F914F913F912F910F900FBE0F901F9005
:1021C0001895C0FFECCF8091E2008E7E80618093F5
:1021D000E2008091E1008E7E8093E1008091910188
:1021E0008E7E8160DACF1F920F920FB60F9211246C
:1021F000CF92DF92EF92FF920F931F932F933F9313
:102200004F935F936F937F938F939F93AF93BF93FE
:10221000EF93FF93CF93DF93CDB7DEB76C97DEBF1D
:10222000CDBF1092E9008091E80083FF25C068E0EF
:10223000CE0145960E94650482EF8093E8008D8967
:1022400087FF39C09091E80090FFFCCF982F9076DF
:1022500009F034C19E894F89588D2F89F88C9111CE
:1022600031C0803861F5809192018093F100109225
:10227000F1008EEF8093E8006C960FB6F894DEBF05
:102280000FBECDBFDF91CF91FF91EF91BF91AF9185
:102290009F918F917F916F915F914F913F912F917E
:1022A0001F910F91FF90EF90DF90CF900F900FBE96
:1022B0000F901F9018959EEF9093E800C7CF109253
:1022C000F100D5CF913059F48111D3CF4130510570
:1022D00081F6809192018D7F80939201CACF9330D5
:1022E00049F48111C6CF4130510519F68091920110
:1022F0008260F2CF953041F48091E80080FFFCCFFE
:1023000020682093E300B5CF963009F0A9C00B8D6B
:102310001C8D22E01092E90010928D0110928C0128
:10232000F2122EC010928B0110928A010E94B30407
:102330001F8299E09983FA8291E09E8390EA9887C0
:102340009AEF998720918C0130918D01275F3F4F43
:102350003C832B838D831092E90010928D011092A3
:102360008C0110938B0100938A0149E050E0BE017B
:102370006F5F7F4F80E00E94EC020E94B30479CF30
:1023800010938B0100938A010E949F04DC01129636
:102390000D911C910115110509F451C1D801ED9160
:1023A000FC910480F581E02DBE016B5E7F4FC8017A
:1023B0000995009709F03EC1F80100851185EACF23
:1023C000F3E0FF120EC08F89882309F440C08230E9
:1023D00061F440E869E08CE491E00E94B902811167
:1023E00048CF81E28093EB0047CF813029F440E869
:1023F00067E084E491E0F1CF833099F70E949F0475
:10240000DC011296ED90FC908E010F5F1F4F68016A
:10241000E114F10479F0D701ED91FC910680F78188
:10242000E02DB801C7010995080F111DF701E084DF
:10243000F184EECFD8011C92F60101900020E9F75B
:102440003197BF016C197D0940E0C601C6CF6EE22D
:1024500071E0FB01449150E080E80E94EC0209CF5A
:10246000973009F4BECF983021F481E08093F100D9
:1024700000CF993009F0FDCE837009F0B2CFEDE0C6
:10248000F1E081E031E096E32191222371F0809325
:10249000E9003093EB00DF0111972C912093EC00C1
:1024A0009093ED008F5F873079F78EE78093EA0095
:1024B0001092EA008F8980939301DBCE8B8D9C8DE7
:1024C0001092E90010928D0110928C0190938B0173
:1024D00080938A01898D811192C08E899D89913A5C
:1024E00049F4813209F07DCF47E050E064E071E0CB
:1024F00080E0B3CF913209F074CF833269F48F89D1
:10250000988DB0E0A0E08093000190930101A0932A
:102510000201B0930301ADCE803269F48091E800EE
:1025200082FFFCCF67E084E091E00E9465048BEFBE
:102530008093E8009ECE823209F09BCE8F898093F3
:102540000B01EEEFFFE7859194918B3F9C4D51F18C
:10255000E0E0F8E08091040190910501A09106016E
:10256000B0910701803B9440A105B105F1F4809141
:102570000B0180FD1AC0EE3F8AE0F80789F587E776
:1025800097E7918380838091600080938E0188E13A
:102590009BE00FB6F894A895809360000FBE9093CF
:1025A000600067CEEEEFFAE0D5CF8081918187376A
:1025B000974709F05ECEA89580916000886180936E
:1025C000600080918E0180936000EE3F2AE0F20768
:1025D00089F08091FE0A9091FF0A9183808349CE11
:1025E000808191818737980751F29093FF0A8093F9
:1025F000FE0AC5CF1092FF0A1092FE0A3ACE0E9440
:102600009F04DC0112960D911C910115110509F42E
:10261000E8CED801ED91FC910190F081E02DBE0152
:102620006B5E7F4FC8010995811123CEF8010085AB
:102630001185EBCF181619060CF41BCED2CEF1E0A3
:10264000FF12BECE62E371E004CF1F920F920FB66D
:102650000F9211242F933F934F935F936F937F9328
:102660008F939F93AF93BF93EF93FF9389E996E086
:102670000E943505FF91EF91BF91AF919F918F918E
:102680007F916F915F914F913F912F910F900FBE6E
:102690000F901F9018951F920F920FB60F92112452
:1026A0002F938F939F93EF93FF93E091A906F0915F
:1026B000AA068081E091AF06F091B00682FD1BC0B2
:1026C00090818091B2068F5F8F732091B30682173D
:1026D00041F0E091B206F0E0E756F94F958F809314
:1026E000B206FF91EF919F918F912F910F900FBEA6
:1026F0000F901F9018958081F4CFCF93DF931092A5
:1027000031031092300388EE93E0A0E0B0E08093B4
:10271000320390933303A0933403B09335032DE435
:1027200031E030932F0320932E032FEF3FEF3093B0
:102730003B0320933A0310929C0610929B068093D1
:102740009D0690939E06A0939F06B093A0068FE5EA
:1027500091E090939A06809399068DEC90E0909387
:10276000A6068093A5068CEC90E09093A806809333
:10277000A70688EC90E09093AA068093A90689ECBE
:1027800090E09093AC068093AB068AEC90E0909337
:10279000AE068093AD068EEC90E09093B0068093E9
:1027A000AF061092B2061092B3061092B4061092C1
:1027B000B50682E0809382038093830388E893E0E8
:1027C000909385038093840310928703109286036D
:1027D00081E791E090937F0380937E0380E880936C
:1027E000880381E8809389030E949F04FC01818112
:1027F00090918203482F490F5527551F48305105A6
:102800009CF5A281B381109709F52EE733E033835D
:10281000228320812093800380938103809183030E
:10282000820F808320918403A22FB09185038A2F89
:10283000821B8917C8F481813D91C82FD0E0C45F05
:10284000DE4F38838F5F8183F2CFD90118962D91A7
:102850003C91199721153105C1F72EE733E0199600
:102860003C932E931897D5CF10921B0810923907DE
:102870001092380710923B0710923A0710923D07CA
:1028800010923C0710923F0710923E0710924107AA
:10289000109240071092430710924207109245078A
:1028A000109244071092470710924607109249076A
:1028B0001092480710924B0710924A0710924D074A
:1028C00010924C0710924F0710924E07109251072A
:1028D000109250071092530710925207109255070A
:1028E00010925407109257071092560710925907EA
:1028F0001092580710925B0710925A0710925D07CA
:1029000010925C0710925F0710925E0710926107A9
:102910001092600788E098E09093630780936207C5
:1029200010926407109265071092660710926B0769
:1029300010926A0710926D0710926C078FEF9FEF4D
:1029400090936F0780936E07909371078093700741
:1029500023E020937207109273071092740710926D
:102960007507109276071092F70720E8E7E7F7E07F
:10297000DF01322F1D923A95E9F71092FA07109273
:10298000FB071092FC071092FD071092FE071092B1
:10299000FF0710920008109201081092020810928E
:1029A000030810920408109205081092060810926D
:1029B000070849E956E050933707409336071092CD
:1029C000CA051092C9051092CC051092CB05109241
:1029D000CE051092CD051092D0051092CF05109221
:1029E000D2051092D1051092D4051092D305109201
:1029F000D6051092D5051092D8051092D7051092E1
:102A0000DA051092D9051092DC051092DB051092C0
:102A1000DE051092DD051092E0051092DF051092A0
:102A2000E2051092E1051092E4051092E305109280
:102A3000E6051092E5051092E8051092E705109260
:102A4000EA051092E9051092EC051092EB05109240
:102A5000EE051092ED051092F0051092EF05109220
:102A6000F2051092F10546E357E05093F4054093C8
:102A7000F3051092F5051092F6051092F7051092E5
:102A8000FC051092FB051092FE051092FD05909337
:102A900000068093FF05909302068093010683E071
:102AA0008093030610920406109205061092060603
:102AB0001092070610928806E8E0F6E0DF011D920A
:102AC0002A95E9F710928B0610928C0610928D06CB
:102AD00010928E0610928F06109290061092910618
:102AE00010929206109293061092940610929506F8
:102AF00010929606109297061092980680E190E048
:102B00009093B8058093B7058AE090E09093BA055A
:102B10008093B9058FE090E09093BC058093BB054E
:102B200061E080E10E94DF0161E08091B9050E94CF
:102B3000DF0161E08091BB050E94DF0161E08091CF
:102B4000B9050E94B10185E190E09093A2058093C0
:102B5000A1051092A3051092A4051092A50510924C
:102B6000A6051092A7051092A8051092A90510922B
:102B7000AA051092AC051092AB0562E00E94DF013D
:102B80008091A1050E9488019093AE058093AD05C8
:102B90009093B0058093AF059093B2058093B105F3
:102BA0001092B3051092B4051092B5051092B605B7
:102BB00084E190E090938C0580938B0510928D05B5
:102BC00010928E0510928F0510929005109291052B
:102BD000109292051092930510929405109296050A
:102BE0001092950562E00E94DF0180918B050E94A2
:102BF0008801909398058093970590939A05809308
:102C0000990590939C0580939B0510929D051092C9
:102C10009E0510929F051092A00580E092E0EAE8E0
:102C2000F3E0DF019C011D9221503040E1F781E08B
:102C300080938C039FEF90939803809399038093E4
:102C40009C039093A8038093A9038093AC03909373
:102C5000B8038093B9038093BC039093C803809317
:102C6000C9038093CC039093D8038093D9038093B6
:102C7000DC039093E8038093E9038093EC03909343
:102C8000F8038093F9038093FC03909308048093E6
:102C9000090480930C049093180480931904809382
:102CA0001C04909328048093290480932C0490930F
:102CB00038048093390480933C04909348048093B3
:102CC000490480934C049093580480935904809352
:102CD0005C04909368048093690480936C049093DF
:102CE00078048093790480937C0490938804809383
:102CF000890480938C049093980480939904809322
:102D00009C049093A8048093A9048093AC049093AE
:102D1000B8048093B9048093BC049093C804809352
:102D2000C9048093CC049093D8048093D9048093F1
:102D3000DC049093E8048093E9048093EC0490937E
:102D4000F8048093F9048093FC0490930805809321
:102D5000090580930C0590931805809319058093BD
:102D60001C05909328058093290580932C0590934A
:102D700038058093390580933C05909348058093EE
:102D8000490580934C05909358058093590580938D
:102D90005C05909368058093690580936C0590931A
:102DA00078058093790580937C05909388058093BE
:102DB0008905DF91CF910895CF93DF93CDB7DEB72B
:102DC0002F970FB6F894DEBF0FBECDBF789484B5B1
:102DD000826084BD84B5816084BD85B5826085BD17
:102DE00085B5816085BD80916E00816080936E00A5
:102DF0001092810080918100826080938100809197
:102E00008100816080938100809180008160809347
:102E10008000809191008260809391008091910068
:102E200081608093910080919000816080939000F8
:102E30008091C10084608093C1008091C100826054
:102E40008093C1008091C10081608093C100809116
:102E5000C30081608093C3008091C0008260809332
:102E6000C0008091C20081608093C20080917A008E
:102E7000846080937A0080917A00826080937A00E7
:102E800080917A00816080937A0080917A008068D6
:102E900080937A0010929301109292011092910106
:102EA0008091D70081608093D70080EA8093D8001A
:102EB00089B5806189BD89B5826089BD09B400FE8C
:102EC000FDCF61E070E080E090E00E9440028091E0
:102ED000D8008F7C80618093D8008091E000807F53
:102EE0008093E0008091E1008E7E8093E1008DE090
:102EF0008093E200559A209A40E06AE087EB95E0E3
:102F00000E94C60982E090E09093BE058093BD05C3
:102F100040E06FE087EB95E00E94C60941E06BE07E
:102F200087EB95E00E94C60940E069E087EB95E0F9
:102F30000E94C60987EB95E00E94EC0941E06CE035
:102F400087EB95E00E94C60982E08093C30583E089
:102F50008093C40584E08093C50585E08093C60511
:102F600007ECE02E05E0F02E03EC15E061E0D8015F
:102F70008D918D010E94DF01E016F106B9F76AE03C
:102F800070E080E090E00E94400288E08093C705F6
:102F900060E00E94DF0189E08093C80560E00E9444
:102FA000DF0161E081E00E94DF0161E081E00E94D9
:102FB000B10161E081E10E94DF0162E085E10E94F0
:102FC000DF0162E084E10E94DF0160E088E00E94AE
:102FD000DF0160E089E00E94DF0182E390E0A0E091
:102FE000B0E08093A3059093A405A093A505B093AA
:102FF000A60580938D0590938E05A0938F05B093C1
:10300000900585E10E948801892B91F460E081E1BF
:103010000E94B1010E947202603A7F4081059105D1
:1030200010F00C94292285E10E948801892B91F3EC
:103030008DEF93E00E94AD23E8E5F1E02591349116
:10304000821315C08EEF93E00E94AD23E7E5F1E017
:103050002591349182130BC08FEF93E00E94AD2332
:10306000E6E5F1E025913491821709F4C0C061E0F2
:1030700081E10E94B1016CE271E080E090E00E9489
:10308000400260E081E10E94B1016CE271E080E009
:1030900090E00E94400213E087EB95E00E94EC096B
:1030A00040E162E087EB95E00E94C60964E670E0CB
:1030B00080E090E00E94400287EB95E00E94EC09DE
:1030C00048E162E087EB95E00E94C60964E670E0A3
:1030D00080E090E00E94400287EB95E00E94EC09BE
:1030E0004CE162E087EB95E00E94C60964E670E07F
:1030F00080E090E00E94400287EB95E00E94EC099E
:103100004DE062E087EB95E00E94C60964E670E05E
:1031100080E090E00E94400287EB95E00E94EC097D
:1031200045E062E087EB95E00E94C60941E061E07E
:1031300087EB95E00E94C60964E670E080E090E0CD
:103140000E94400287EB95E00E94EC0941E062E0BA
:1031500087EB95E00E94C60941E261E087EB95E0CC
:103160000E94C60964E670E080E090E00E944002A0
:1031700087EB95E00E94EC0941E661E087EB95E082
:103180000E94C60964E670E080E090E00E94400280
:1031900087EB95E00E94EC0942E661E087EB95E061
:1031A0000E94C60964E670E080E090E00E94400260
:1031B00087EB95E00E94EC0942E461E087EB95E043
:1031C0000E94C60940E162E087EB95E00E94C609D3
:1031D00064E670E080E090E00E94400287EB95E0BA
:1031E0000E94EC09115009F057CF0E94E70D90E0C2
:1031F00080E00E94AD23811102C00E94840B81E314
:103200009AE090933907809338078DE19AE0909384
:10321000CA058093C90584EF9BE090934B07809388
:103220004A0780EA9BE09093450780934407909378
:10323000D6058093D505E091F305F091F405019052
:10324000F081E02DA089B18982E08C93A485B585B9
:103250001C92A685B7858FE38C93108EA489B589BF
:1032600086E08C93A289B3898C9180618C93A2892A
:10327000B3898C9188608C93A289B3898C91806882
:103280008C930288F389E02D80818F7D808310925A
:10329000F5051092F7051092F6051092FE051092B2
:1032A000FD051092FC051092FB058FEF9FEF9093A8
:1032B00000068093FF0590930206809301060E940A
:1032C000720260938B0670938C0680938D069093A8
:1032D0008E0610928806109205061092040610922F
:1032E00006061092070610928A06109289068091AF
:1032F0000306817082608160809303066EEF83EF26
:1033000095E00E94600915E041E061E087EB95E0FF
:103310000E94C60948E062E087EB95E00E94C6097A
:1033200060EA70E080E090E00E94400287EB95E068
:103330000E94EC0940E461E087EB95E00E94C60939
:1033400041E062E087EB95E00E94C60960EA70E028
:1033500080E090E00E94400287EB95E00E94EC093B
:1033600048E061E087EB95E00E94C60940E462E036
:1033700087EB95E00E94C60960EA70E080E090E08B
:103380000E94400287EB95E00E94EC09115009F081
:10339000BBCF0E9472026093BF057093C0058093FB
:1033A000C1059093C20566246394712CCE010996E1
:1033B0009B878A87DE011896BD87AC87212C312C2C
:1033C00021012A94A4E9EA2EA1E0FA2E0AE813E0EA
:1033D0001F861E86F3ECAF2EF5E0BF2ED12CC12C3C
:1033E0006E857F850C2C02C0759567950A94E2F76F
:1033F0006170F50181915F010E94B101FFEFCF1A69
:10340000DF0A24E0C216D10459F781E090E0AE85CE
:10341000A03110F490E080E08D539A4FDC011496B7
:10342000EC91E23108F0E251F0E0E75AFE4FE4910E
:1034300090917B008E2F880F880F80729F7D892B43
:1034400080937B00E770E064E0937C0080917A00D9
:10345000806480937A0080917A0086FDFCCF909101
:1034600078008091790089279827892796958795F4
:1034700096958795682FF70180838181861709F4D7
:10348000DDC08281861709F4D9C08381861709F4CB
:10349000D5C0D8011E968C901E97282D30E050E0A4
:1034A00040E070E090E080E01F96EC91EE2309F49C
:1034B00077C0912C919481949108092C000CAA0852
:1034C000BB08281939094A095B090E94C323A201D4
:1034D00091010E94F523820E931EA41EB51E87FE45
:1034E00006C0992481940CF49094689487F8882DF0
:1034F00090E074E0959587957A95E1F78987F82DA6
:10350000FF70F887D8018C91882309F490C0E8E017
:10351000F0E0FC83EB831E821D8288E090E00E9435
:103520007F249A838983D12CC801875893404C010A
:10353000D801CC908C2D90E09C012F5F3F4FAD2C9B
:10354000B12C2A153B05ECF111968C911197D812EC
:1035500018C012968C916A857B85811102C06C859A
:103560007D85CE0101960E942C0BF80182816C852D
:103570007D85811102C06A857B85CE0101960E94FE
:103580002C0BD8018C91D81649F0B4016A0D7B1D23
:1035900066577C4FCE0101960E942C0BD394C8CF66
:1035A000F8018584912CB12CA12C281939094A09DC
:1035B0005B090E94C323A20191010E94F523820EA0
:1035C00096CFA980BA806C01B2E0CB0ED11C60EF1F
:1035D0008091F3059091F4050E9456094501F4018C
:1035E00061914F018091F3059091F4050E94560975
:1035F000C4018A199B098C159D0588F367EF80919A
:10360000F3059091F4050E945609D8016C9170E081
:103610006E5F7F4F20E0A50182E697E00E94990847
:1036200081E00E94050ACE0101960E94990AF701E5
:103630008281838381818283808181838E859F853E
:1036400001969F878E8794E0E90EF11C005F1F4F63
:10365000AE85BF85909709F0BDCEF0906407B0E1CC
:10366000BF1538F10091620710916307F801838557
:103670009485892B09F47DC0809107088E7F809303
:103680000708E0916207F0916307858596859C01A4
:103690002F5F3F4F368725878E0F9F1FDC011796C0
:1036A0001C91838594850197948783871D3F09F03A
:1036B00094C1F090F50590E19F1508F416C4E091CF
:1036C000F305F091F40580819181DC01ED91FC918D
:1036D0000084F185E02D0995892B09F406C48091B9
:1036E00098068E7F80939806E091F305F091F4059B
:1036F00080819181DC01ED91FC910284F385E02DC4
:103700000995182F8D3F09F4F0C38091FD05909124
:10371000FE05009709F042C51093F8050091F605E3
:10372000802F0E94F9060E940707882351F017FD99
:1037300008C00093F8051093F9057092FE05609299
:10374000FD051091F805812F0E94F906813F09F4CB
:10375000EFC408F084C4803B49F008F0A8C3803966
:1037600029F0803A19F0803809F0A9C323E030E04D
:10377000E1C4168615868091140390911503A091DB
:103780001603B091170340911803509119036091EB
:103790001A0370911B03841B950BA60BB70B8F7339
:1037A0009927AA27BB27892B8A2B8B2B09F47DC04D
:1037B0008091180390911903A0911A03B0911B03F3
:1037C000880F991F880F991FFC01EC5EFD4F8081C7
:1037D000918172816381209114033091150340918E
:1037E0001603509117038090180390901903A0902E
:1037F0001A03B0901B03281539054A055B05D1F063
:103800008090180390901903A0901A03B0901B03A6
:10381000FFEF8F1A9F0AAF0ABF0A2FE38222992473
:10382000AA24BB248092180390921903A0921A0331
:10383000B0921B03D8011F968C931F9750969C93B0
:10384000509751967C93519752966C935297882338
:1038500029F1282F30E044E0359527954A95E1F786
:1038600053964C9153974217130609F022CF8F704D
:10387000482F50E01B962D913C91FA01EE0FFF1F4F
:10388000E75DFE4FE181E13009F48AC008F472C0BF
:10389000E23009F495C0E33009F471C0F801838582
:1038A0009485892B09F405CFE7CE809181030E948E
:1038B0004C0460E070E090E0882309F48CCF8090A5
:1038C000140390901503A0901603B0901703FFEF18
:1038D0008F1A9F0AAF0ABF0A2FE382229924AA24D3
:1038E000BB248091180390911903A0911A03B09101
:1038F0001B0388159905AA05BB0509F459CF8091CA
:1039000081030E944C0444E050E0BE016F5F7F4F92
:10391000809181030E94D80304970CF449CF8091D1
:10392000140390911503A0911603B0911703880F0B
:10393000991F880F991F8C5E9D4F49815A816B8119
:103940007C81DC014D935D936D937C931397809202
:10395000140390921503A0921603B0921703BFEFC1
:103960008B1A9B0AAB0ABB0AEFE38E229924AA2486
:10397000BB24B7CF843019F04730510571F4F801FA
:10398000E20FF31F978370872D5F3F4FD8011C967E
:103990003C932E931B97618781CF4530510561F48D
:1039A000A9014F5F5F4FF80154874387200F311FF4
:1039B000D90117969C9372CF4630510509F06ECF0E
:1039C000F801E20FF31F97832E5F3F4FD8011C963B
:1039D0003C932E931B97708761CF80916C079091D9
:1039E0006D07009709F0F4C0109367070091650711
:1039F000802F0E94F9060E940707882351F017FDC7
:103A000008C0009367071093680770926D07609273
:103A10006C0710916707812F0E94F906813F09F416
:103A2000A1C0C8F5803B39F048F4803921F0803AD4
:103A300011F0803851F423E030E096C0803D09F465
:103A400091C0D0F4803C09F48DC08091070881605A
:103A500080930708E0913A07F0913B07309709F00F
:103A6000099510926D0710926C0710926B071092D7
:103A70006A07109265071DCE803EE9F2803F29F764
:103A800020E830E030936B0720936A0710926507B7
:103A9000809377076DC0873F99F308F05CC0833F40
:103AA00009F460C040F2863F81F68093740710925B
:103AB0007307109275071092760781E08093F707DD
:103AC00010926D0710926C0710926B0710926A07A4
:103AD00080917407803939F480917607811103C091
:103AE00080E880937407809174078058813630F4A1
:103AF00080917307F81611F0F11004C088E397E085
:103B00000E94160790917207392F317090FFD1CD26
:103B1000892F8E7F09F4CDCD8091740720E8280F7E
:103B2000213608F02BC120917307F21619F031E00D
:103B3000F11030E09695923009F419C1933009F4F0
:103B40001AC1913009F0B5CD4091760760917507A3
:103B50000E940909AECD8D3F08F4A7CF8E3F08F033
:103B6000A4CF73CF22E030E030936B0720936A0735
:103B700020916C0730916D0740916A0750916B0757
:103B80004150510924173507E0F0809374071F70E6
:103B90001F5F1093730780916807809375071092D9
:103BA00076077092F9076092F80710926D071092ED
:103BB0006C0710926B0710926A0781E08093F707F9
:103BC00087CF2F5F3F4F30936D0720936C0771CDE8
:103BD00017FF0CC01D3F08F04EC0183F08F04EC044
:103BE000103F09F458C0173F09F455C020916707EA
:103BF000FC01E85CF84F203F19F0273F09F075C041
:103C000017AFA0906A07B0906B079501215031095A
:103C10008217930708F4A9C0D0906707B0EFDB16AE
:103C200019F0E7EFDE1263C01091F60780EF809382
:103C3000F6078093740780E88093750710927607E3
:103C40001092730780E890E09093F9078093F8074B
:103C500081E08093F70788E397E00E94160787EFDB
:103C6000809377071093780782E090E090936D0738
:103C700080936C071ECD1E3F08F4B8CF10937407D5
:103C80001092750710927607109273077092F907D9
:103C90006092F80792CF20917707203F19F0273FD5
:103CA00009F0D3CE9C012F5F3F4F885C984FDC0119
:103CB000DF961C9380EF80937407209375073093F1
:103CC0007607109273073093F9072093F80781E085
:103CD0008093F70710926D0710926C0710926B0794
:103CE00010926A0710926507F3CE17A78ACF8D2D21
:103CF0000E94F906182F809374070E9407078823F3
:103D000049F18D2D8F708F5F8093730780916807C5
:103D10008093750780916907F3E0AF16B10409F04D
:103D200080E08093760710926D0710926C071092D6
:103D30006B0710926A0781E08093F707103B39F018
:103D400060F4103921F0103A11F0103859F6D09281
:103D50006507BECE10927307D9CF103DC1F3103E58
:103D6000B1F3103C09F0BECFF2CF01967FCF3323E1
:103D700009F49FCCE9CE31119CCCE6CEE0E1E80F0E
:103D8000E03108F096CCF0E0E853F14E0C94792441
:103D9000DE1E3A1F111FEF1E591B591BD81E591B3F
:103DA000D81E591BD81ED81ED81E591BD81ED81E67
:103DB000682F82E697E00E94E3087BCC609175074C
:103DC000709176076138710510F060E870E021E0CD
:103DD00047E757E082E697E00E9499086ACC109185
:103DE000750763EF80916207909163070E946D08E9
:103DF000882309F45ECC63EF80916207909163079A
:103E00000E940108612F6F7780916207909163078C
:103E10000E94010880916207909163070E94D60773
:103E200048CCF09075070091760762EF80916207A9
:103E3000909163070E946D08882309F43ACC20E82A
:103E4000029F800111240F2962EF809162079091F7
:103E500063070E940108602F6F778091620790913D
:103E600063070E940108000F012F001F110B11951D
:103E7000602FC9CF009176071091750761EF80918F
:103E80006207909163070E946D08882309F411CCA2
:103E900061EF80916207909163070E94010880E1C1
:103EA000189FB001112460770F70602BADCF803D5B
:103EB00009F43EC108F0C2C0803C09F439C18091C8
:103EC0009806816080939806E091CB05F091CC052F
:103ED000309709F009951092FE051092FD05109299
:103EE000FC051092FB051092F60581EA95E00E9410
:103EF00097068BE895E00E9497068091AD0590911A
:103F0000AE050197A9F48091AF059091B005892B7A
:103F100079F481E0809323030E94720260931E0370
:103F200070931F0380932003909321031092030644
:103F300080919705909198050197A9F48091990532
:103F400090919A05892B79F481E0809322030E9455
:103F5000720260931E0370931F038093200390935B
:103F60002103109203068091AD059091AE05892B37
:103F700049F48091AF059091B005019719F481E063
:103F80000E94A50B8091970590919805892B49F483
:103F90008091990590919A05019719F480E00E940B
:103FA000A50B10912303111104C0809122038823D3
:103FB00009F10E947202C0901E03D0901F03E0908E
:103FC0002003F09021036C197D098E099F096D3F34
:103FD00073408105910570F0111110921D038091BD
:103FE0002203882339F081E080931D0380911C0314
:103FF0000E949E0A0E9472020091BF051091C005A6
:104000002091C1053091C205601B710B820B930B8F
:10401000663971058105910520F087EB95E00E94D6
:10402000EC0980E090E0892B09F4CCC90E942105BD
:10403000882309F4C7C90E940000C4C9803E09F45E
:1040400095CB803F09F03BCF20E830E03093FC0572
:104050002093FB051092F605809308066FC0873FFA
:1040600099F308F05EC0833F09F462C008F47ECB88
:10407000863F09F024CF8093050610920406109223
:1040800006061092070681E0809388061092FE05CE
:104090001092FD051092FC051092FB05809105061B
:1040A000803939F480910706811103C080E880933C
:1040B0000506809105068058813630F4809104060B
:1040C000F81611F0F11004C089EC95E00E94160773
:1040D00090910306392F317090FF07CF892F8E7F83
:1040E00009F403CF8091050620E8280F213608F057
:1040F0002BC120910406F21619F031E0F11030E0E6
:104100009695923009F419C1933009F41AC191308F
:1041100009F0EBCE40910706609106060E946E09F9
:10412000E4CE8D3F08F4A7CF8E3F08F0A4CFC7CED2
:1041300022E030E03093FC052093FB052091FD0543
:104140003091FE054091FB055091FC05415051090D
:1041500024173507E0F0809305061F701F5F10934A
:1041600004068091F9058093060610920706709266
:104170008A06609289061092FE051092FD05109243
:10418000FC051092FB0581E08093880687CF2F5FA6
:104190003F4F3093FE052093FD05A7CE17FF0CC0BF
:1041A0001D3F08F04EC0183F08F04EC0103F09F404
:1041B00058C0173F09F455C02091F805FC01E7539A
:1041C000FA4F203F19F0273F09F074C017AFA090B5
:1041D000FB05B090FC05950121503109821793072A
:1041E00008F4A9C0D090F805F0EFDF1619F027EF1A
:1041F000D21262C01091870680EF80938706809369
:10420000050680E8809306061092070610920406C1
:1042100080E890E090938A068093890681E08093FD
:10422000880689EC95E00E94160787EF80930806C0
:104230001093090682E090E09093FE058093FD05BF
:1042400054CE1E3F08F4B8CF109305061092060610
:10425000109207061092040670928A0660928906F0
:1042600092CF20910806203F19F0273F09F027CE72
:104270009C012F5F3F4F87539A4FFC0117AF80EF90
:1042800080930506209306063093070610920406D5
:1042900030938A062093890681E0809388061092E5
:1042A000FE051092FD051092FC051092FB05109280
:1042B000F605F4CE17A78BCF8D2D0E94F906182F87
:1042C000809305060E940707882341F18D2D8F708A
:1042D0008F5F809304068091F9058093060683E042
:1042E000A816B104F1F48091FA05809307061092A4
:1042F000FE051092FD051092FC051092FB0581E071
:1043000080938806103B39F070F4103921F0103A90
:1043100011F0103861F6D092F605C0CE1092040666
:10432000DACF80E0E2CF103DB1F3103EA1F3103CB4
:1043300009F0BDCFF0CF01967FCF332309F4D5CD5F
:10434000E9CE3111D2CDE6CEE0E1E80FE03108F060
:10435000CCCDF0E0E255FE4D0C947924C421152219
:10436000F621E421751F751FBE21751FBE21751F23
:10437000BE21BE21BE21751FBE21BE21682F83EF45
:1043800095E00E946009B1CDE0900606F090070626
:1043900091E8E916F10418F090E8E92EF12C09EC07
:1043A00015E0C801895C95408E159F0508F09DCDEC
:1043B000D801DF966C918091F3059091F4050E94ED
:1043C00056090F5F1F4FEDCF1091060663EF8091E6
:1043D000F3059091F4050E945609612F6F77809143
:1043E000F3059091F4050E9456097FCD00910706D0
:1043F000B0E80B9F8001112480910606082B62EF24
:104400008091F3059091F4050E945609602F6F7713
:104410008091F3059091F4050E945609000F012F39
:10442000001F110B1195602FD9CF60910606E0E1B6
:104430006E9FB00111246077109107061F70162B34
:1044400061EF8091F3059091F4050E945609612F68
:10445000C6CF61E081E10E94B10164E170E080E0DB
:1044600090E00E94400260E081E10E94B10110E012
:1044700000E060E0C8010E94B5230F5F1F4F0115E7
:10448000E4E01E07B1F761E081E10E94B1010C9404
:104490001818B0E0A0E0EFE4F2E20C9420245C01F4
:1044A0006B017A016115710519F0FB01918380831D
:1044B000E114F10451F0C7010297839730F040E016
:1044C00030E020E090E072C05E01E5012196F50148
:1044D0001081812F90E00E946023892BA9F71D3263
:1044E00001F52196F501118101E0E114F10409F4CF
:1044F000DAC0F0E1EF16F10409F082C0103359F48C
:1045000088818F7D883509F076C0198122960260F6
:10451000F0E1EF2EF12C812C912CA12C88E0B82E0B
:104520008CC01B3221F4E5012296F501118100E0D7
:10453000DCCFEAE0EE16F10409F4BBC0F0E1EF16BF
:10454000F10409F06DC0E7CF78E0E72EF12C812C63
:10455000912CA12C60E1B62E70C03FE9310F3A31A9
:1045600028F439EA332E80C021E09AC0302F317010
:10457000C114D10431F0222309F12197F601D1832E
:10458000C08327FF21C060E070E080E090E8311137
:1045900004C06FEF7FEF8FEF9FE722E230E03093B0
:1045A0001D0820931C08462F372F282F642F732FA8
:1045B000822FCDB7DEB7E1E10C943C2401FF04C0AB
:1045C0002297F601D183C083332341F090958095E3
:1045D000709561957F4F8F4F9F4FE5CF97FFE3CF4A
:1045E00082E290E090931D0880931C086FEF7FEFAC
:1045F0008FEF9FE7D8CF10E3E114F10409F4A4CFC3
:1046000028E0E216F10409F4A2CF0CF092CF812C3D
:10461000912CA12CE0E4BE2E82E0E816F10469F0B2
:1046200060E070E080E090E897010F2C000C440BF4
:10463000550B0E94D32349015A0120E060E070E04D
:10464000CB0127010F2C000C66087708FE0150ED06
:10465000352E310E39E0331540F43FEB310F3A314E
:1046600008F07BCF49EC342E310E3E141F040CF0C1
:104670007DCF27FD15C086169706A806B90678F0E7
:10468000A30192010E94C323630D711D811D911D21
:1046900061307105810520E8920708F465CF2FEF9E
:1046A00021961081D3CF103309F42ACF2AE0E22ECD
:1046B000F12C9CEC892E982CA82C9CE0B92EBDCF17
:1046C00091110C949A23803219F089508550C8F7C3
:1046D0000895BB272A3051F4992342F4BDE2909506
:1046E0008095709561957F4F8F4F9F4F0C947923E4
:1046F000BB27FA01A62F6217710581059105330BBF
:1047000030FB66F0AA27660F771F881F991FAA1F24
:10471000A21710F0A21B63953850A9F7A05DAA3329
:1047200008F0A95DA19336F7B111B1931082CA01C7
:104730000C949D23992788270895DC01FC01672F9D
:1047400071917723E1F7329704C07C916D93708368
:104750006291AE17BF07C8F30895F999FECF92BDD5
:1047600081BDF89A992780B50895262FF999FECF33
:104770001FBA92BD81BD20BD0FB6F894FA9AF99A7E
:104780000FBE01960895DB018F939F930E9414241E
:10479000BF91AF91A29F800D911DA39F900DB29FDD
:1047A000900D11240895A1E21A2EAA1BBB1BFD0136
:1047B0000DC0AA1FBB1FEE1FFF1FA217B307E40700
:1047C000F50720F0A21BB30BE40BF50B661F771F58
:1047D000881F991F1A9469F7609570958095909538
:1047E0009B01AC01BD01CF010895052E97FB1EF47E
:1047F00000940E940C2457FD07D00E94D32307FC8D
:1048000003D04EF40C940C2450954095309521958E
:104810003F4F4F4F5F4F08959095809570956195EC
:104820007F4F8F4F9F4F08950E945624A59F900D54
:10483000B49F900DA49F800D911D112408952F9277
:104840003F924F925F926F927F928F929F92AF9220
:10485000BF92CF92DF92EF92FF920F931F93CF936D
:10486000DF93CDB7DEB7CA1BDB0B0FB6F894DEBF04
:104870000FBECDBF09942A88398848885F846E842A
:104880007D848C849B84AA84B984C884DF80EE8074
:10489000FD800C811B81AA81B981CE0FD11D0FB67D
:1048A000F894DEBF0FBECDBFED010895A29FB00109
:1048B000B39FC001A39F700D811D1124911DB29F54
:1048C000700D811D1124911D0895AA1BBB1B51E180
:1048D00007C0AA1FBB1FA617B70710F0A61BB70B70
:1048E000881F991F5A95A9F780959095BC01CD0115
:1048F0000895EE0FFF1F0590F491E02D09940F939A
:104900001F93CF93DF938230910510F482E090E003
:10491000E0912008F091210830E020E0B0E0A0E034
:10492000309799F42115310509F44AC0281B390B39
:1049300024303105D8F58A819B816115710589F193
:10494000FB0193838283FE0111C04081518102816A
:10495000138148175907E0F04817590799F4109741
:1049600061F012960C93129713961C933296CF0116
:10497000DF91CF911F910F9108950093200810931C
:104980002108F4CF2115310551F04217530738F0B3
:10499000A901DB019A01BD01DF01F801C1CFEF01DF
:1049A000F9CF9093210880932008CDCFFE01E20F2C
:1049B000F31F819391932250310939832883D7CFF4
:1049C00020911E0830911F08232B41F420911501DE
:1049D0003091160130931F0820931E082091130177
:1049E000309114012115310541F42DB73EB74091A6
:1049F000170150911801241B350BE0911E08F0910E
:104A00001F08E217F307A0F42E1B3F0B28173907E6
:104A100078F0AC014E5F5F4F2417350748F04E0F1A
:104A20005F1F50931F0840931E08819391939FCF5F
:104A3000F0E0E0E09CCFCF93DF930097E9F0FC013A
:104A4000329713821282A0912008B0912108ED01C3
:104A500030E020E01097A1F420813181820F931F74
:104A600020911E0830911F082817390709F061C0EE
:104A7000F0931F08E0931E08DF91CF910895EA019B
:104A8000CE17DF07E8F54A815B819E01411551058C
:104A9000B1F7E901FB83EA8349915991C40FD51F0E
:104AA000EC17FD0761F4808191810296840F951FB8
:104AB000E90199838883828193819B838A83F0E0D3
:104AC000E0E012968D919C9113970097B9F52D9186
:104AD0003C911197CD010296820F931F20911E08E1
:104AE00030911F082817390739F6309751F5109281
:104AF000210810922008B0931F08A0931E08BCCF75
:104B0000D383C28340815181840F951FC817D90771
:104B100061F44E5F5F4F88819981480F591F51831F
:104B200040838A819B81938382832115310509F01B
:104B3000B0CFF0932108E09320089ECFFD01DC0167
:104B4000C0CF13821282D7CFB0E0A0E0EAEAF5E24C
:104B50000C9421248C01009751F4CB010E947F24F6
:104B60008C01C801CDB7DEB7E0E10C943D24FC0117
:104B7000E60FF71F9C0122503109E217F30708F4F2
:104B80009DC0D901CD91DC911197C617D70798F038
:104B9000C530D10530F3CE0104978617970708F387
:104BA000C61BD70B2297C193D1936D937C93CF01F2
:104BB0000E941B25D6CF5B01AC1ABD0A4C018C0E9E
:104BC0009D1EA0912008B0912108512C412CF12C60
:104BD000E12C109731F580911E0890911F088815DF
:104BE000990509F05CC04616570608F058C0809138
:104BF000130190911401009741F48DB79EB7409135
:104C0000170150911801841B950BE817F90708F05C
:104C100055C0F0931F08E0931E08F901718360836B
:104C2000A0CF8D919C91119712966C90129713962C
:104C30007C901397A815B90559F56C0142E0C40E94
:104C4000D11CCA14DB0420F1AC014A195B09DA015A
:104C50001296159780F06282738251834083D90146
:104C60006D937C93E114F10471F0D7011396FC93DA
:104C7000EE93129776CF22968C0F9D1FF9019183A8
:104C80008083F301EFCFF0932108E093200869CFF0
:104C90004816590608F42C017D01D3019ACFCB01A7
:104CA0000E947F247C01009749F0AE01B8010E9468
:104CB0006126C8010E941B25870153CF10E000E048
:104CC00050CFFB01DC0102C001900D9241505040D9
:104CD000D8F70895FB01DC0101900D920020E1F767
:064CE0000895F894FFCFD7
:104CE600FFFFFFFF00E100000000000000C180811F
:104CF600000000000022088000000080089009A043
:104D06000AB00BC00CD00DE00E0000010002020339
:104D1600030400050006000700080309030A030B45
:104D2600030C020D020E030F01000000002601C253
:104D3600032303880255042A0402040000000056D7
:104D4600057204E404A2051505F304070500000036
:0E4D560000C505C705C20521104D494449009E
:00000001FF
